:100000000C944B020C9468020C9468020C945D23CF
:100010000C9468020C9468020C9468020C946802B8
:100020000C9468020C9468020C9483280C94572951
:100030000C94DA210C9468020C9468020C94680207
:100040000C9468020C9468020C9468020C94680288
:100050000C9468020C947D220C9468020C94680243
:100060000C9468020C9468020C9468020C94680268
:100070000C9468020C9468020C9468020C94680258
:100080000C9468020C9468020C9468020C94680248
:100090000C9468020C9468020C9468020C94680238
:1000A0000C9468020C9468020C9468021A00150003
:1000B00000001C000C0000001800080000000F00E9
:1000C0001100000011000B0000000A0019000000E0
:1000D00017000700000013001700000009001600B9
:1000E0000000150016000000110008000C001200AE
:1000F00000000F0018001C003300000008000C0076
:10010000000011000800000010000B0000000E00AD
:100110001100000018001C0000000F001800000073
:10012000110008000C0000000C0012000000040088
:10013000150000000700190000001500170000005E
:1001400017000A0000001600170000001A0009003E
:10015000000014001A000900130000000900130039
:1001600000001A000900130000000A001A00000035
:1001700014001A00090013000543040015001600BE
:1001800017000A0000001B240628070119002A2274
:100190002B420000000000000D430F0018001C005F
:1001A00033000E00110008000C00120010310B1873
:1001B00036143700380028412C32000000000000BF
:1001C0001E001F0020002100220023002400250023
:1001D000260027000100502452282E012D02010084
:1001E00000520000000000002A002B1228002B0003
:1001F0004C0037002E022D00250238002302E400B7
:1002000051384F34310000000100000000000000B0
:100210002F213022360237024A00E200E3002A0092
:100220002C002B00035200000000000046000100DB
:1002300000520000000000004D00260227022F029D
:1002400030025000510052004F0028000000000012
:10025000000000000000000001000000000000009D
:100260003A003B003C003D0002523E003F0040008F
:100270002500BF0042004300440045000000E200AA
:1002800000520000000000000152A900AA00A800CE
:10029000AE00AC00AB00C000A500E700007C017C14
:1002A000037C047CE4000000E60000000000000085
:1002B00000000000000000002A2B280000000000C1
:1002C0000000000000000000000000290000000005
:1002D0002C1E3420212224342627252E362D373873
:1002E000271E1F202122232425263333362E37387C
:1002F0001F0405060708090A0B0C0D0E0F1011123A
:10030000131415161718191A1B1C1D2F3130232D05
:10031000350405060708090A0B0C0D0E0F10111203
:10032000131415161718191A1B1C1D2F3130354CB4
:1003300000000000000000000000000000000000BD
:1003400000000000000000000000000000000000AD
:10035000000000007E0F00D4FFFFFFC70000007800
:100360001A034600650072007200690073002000E5
:10037000730077006500650070000000080344000A
:100380005000420000000403090409023B0002017E
:1003900000A0FA0904000001030101000921110174
:1003A000000122440007058103080001090401003F
:1003B0000103000000092111010001227B00070553
:1003C00082032000011201000200000008ABC239C4
:1003D0003901000102000105010902A1018502099C
:1003E00001A10005091901290815002501950875C5
:1003F0000181020501093009311581257F950275BA
:1004000008810609381581257F9501750881060543
:100410000C0A38021581257F950175088106C0C038
:1004200005010980A101850319012AB700150126DC
:10043000B700950175108100C0050C0901A1018567
:100440000419012AA002150126A002950175108148
:1004500000C005010906A101050719E029E71500FB
:10046000250195087501810295017508810105072F
:10047000190029FF150026FF009506750881000563
:1004800008190129051500250195057501910295A9
:100490000175039101C011241FBECFEFDAE0DEBF6A
:1004A000CDBF12E0A0E0B1E0ECE4F8E502C00590B9
:1004B0000D92AE39B107D9F724E0AEE9B2E001C040
:1004C0001D92A632B207E1F70E9440150C94DD2B75
:1004D0000C9400008430B8F46830A8F4453098F4E7
:1004E00050E095E0699F400D511D1124FA0198E2FA
:1004F000899FE00DF11D1124EE0FFF1FE059FE4F03
:1005000085919491089581E090E008950E946A0297
:1005100008958EE190E0089527E0AC01249FC0018A
:10052000259F900D112480509F4F08959C013A956E
:1005300021153F4150F5FC01EE27F170BC01662703
:100540007270AC01442754709C012227387094FFCC
:100550000EC080E1EF2B09F480E0672B09F0806288
:10056000452B09F08064232B89F08068089581E091
:10057000EF2B09F480E0672B09F08260452B09F02E
:100580008460232B19F08860089580E00895CF934C
:10059000DF93EB010E949602FE010995DF91CF9156
:1005A0000895CF93DF93EC01805E9109089720F0C6
:1005B0006FEA77E0209711F46BE675E0CE010E94B8
:1005C000C7028C2F0E94CE04DF91CF910895CF9364
:1005D000DF93EC010E941705CE01805E9109089718
:1005E00020F066EB77E0209711F462E775E0CE012A
:1005F0000E94C702DF91CF9108950F931F93CF936D
:10060000DF938C01EB010E94D102209741F4C801D5
:100610000E94E702DF91CF911F910F9108958FE91A
:100620009FE00197F1F700C000002197EECF70E046
:1006300060E08933910511F460E570E00E94FD02ED
:10064000089581E008950E942103089581E00895AE
:100650000E94210308950E942803089508950E948E
:100660002E030895A6E0B0E0E8E3F3E00C94392B04
:1006700049835A839E833091A50289819A813111E1
:100680001AC03E81332399F0222389F00E94290960
:10069000182F682F89819A810E94050969817A81C2
:1006A000812F0E945B102696E3E00C94552B0E944C
:1006B0001709182FF3CF0E94290969817A81F1CF98
:1006C000FC01262F87819085009741F4408151815C
:1006D00062817381848195810E94320308950F9312
:1006E0001F93CF93DF93EC0161E00E9460038C01C4
:1006F000BE010E942303882351F0BE01C8010E945D
:10070000B7198170DF91CF911F910F91089580E00B
:10071000F8CFCF93DF93EC0160E00E946003BE014D
:100720000E942F03DF91CF91089581E008950E94E8
:1007300095030895CF93C82F0E94D3078C2F0E9452
:1007400097032FEF84E39CE0215080409040E1F735
:1007500000C00000CF91089581E00E949A030E949A
:10076000A122089580E00E949A030E94B222089577
:100770000F931F93CF93DF938C0161E00E9460037E
:10078000EC01B8010E942B03811106C080E0DF91CB
:10079000CF911F910F910895B801CE010E94371794
:1007A0008823A1F3B801CE010E946815882371F354
:1007B000B801CE010E943A20882341F3B801CE014E
:1007C0000E94B11B882311F3B801CE010E94871B40
:1007D0008823E1F2F8018581882361F0C330FCE7CA
:1007E000DF07E9F058F4C115ECE7DE07A9F0C130E6
:1007F000DC47B9F0C8010E942603C9CFCB358CE78E
:10080000D807A9F0CC35ECE7DE0771F0CA35DC4734
:1008100089F70E948D0DEECF0E94AC03B7CF0E94E6
:10082000950D0E94B203B2CF0E94830DE3CF0E94C8
:10083000910DE0CF0E94B7210E94650408950E94A7
:1008400069040E94BC210895292F332740E0211517
:10085000310511F0C90148E09C0164E03695279507
:100860006A95E1F72115310511F04C5FC9019C0132
:1008700036952795369527952115310511F04E5F50
:10088000C90196958795892B09F04F5F842F0895AC
:10089000089581E008950895CF93DF93D82F0E94A3
:1008A0004904C82F882319F08D2F0E944B048C2FE8
:1008B000DF91CF9108950895CF93C82F0E944804E7
:1008C0008C2F0E944C04CF91089580E00E945C041C
:1008D00008950E9483200E945C040895CF930E9493
:1008E0008320C82F8091A0028C1779F0C093A002BA
:1008F0000E9446226093A1027093A2028093A302F9
:100900009093A4028C2F0E945C04CF910895AFE0D5
:10091000B0E0EDE8F4E00C94382B4A875B876C87F5
:100920007D878E879F8791110E94C00C1F82188639
:10093000198686E0FE013A96DE01119601900D922D
:100940008A95E1F78D8181110FC009811A812B8170
:100950003C814D815E816F81788589850E94000C84
:100960002F96E4E00C94542BCE0101960E946F0365
:100970008111EBCFF5CFFC012481213021F480815E
:1009800091810E945B090895662329F00E94121D3F
:100990000E94F71D08950E947E1DFACFCF93C82FA5
:1009A000882399F08CEF8C0F813A88F48C2F0E9469
:1009B0001221882329F08C2F0E9455210E94320D8C
:1009C0008C2F0E944D210E94320DCF91089580E21C
:1009D0008C0F883048F4C77081E001C0880FCA9539
:1009E000EAF70E94A00CEFCFEBE5EC0FE33040F408
:1009F000F0E0E15AFD4F808190E00E94B320E5CF06
:100A0000E8E5EC0FEB3150F4F0E0EE0FFF1FE75D8F
:100A1000FD4F808191810E94D820D7CF83E38C0F36
:100A2000833198F661E08C2F0E94C404CECF8823D6
:100A300081F19CEF980F913A28F40E9455210E9471
:100A4000320D089590E2980F983050F4877091E03D
:100A500001C0990F8A95EAF7892F0E94A60CEFCF63
:100A60009BE5980F933028F490E080E00E94B3203B
:100A7000089598E5980F9B3128F490E080E00E945B
:100A8000D820089593E3980F933118F460E00E9402
:100A9000C40408951F93CF93DF93182FEB010E9496
:100AA000CE04209739F4812F0E941705DF91CF9152
:100AB0001F9108958FE99FE00197F1F700C00000B2
:100AC0002197EFCF70E060E0893311F460E570E0CA
:100AD0000E944A050895882321F00E94A00C0E94DC
:100AE000320D0895882321F00E94A60C0E94320D39
:100AF0000895B0E0A0E0EFE7F5E00C94332B6C0133
:100B0000D62FC72FFC011581068102950F700E9418
:100B1000960CE82E8823F9F0E12E1123E1F08C2FBA
:100B2000807F803461F080E28D0F883008F18C2F57
:100B3000807E803221F4D230D8F00023C9F0809139
:100B4000FB0382FF15C082E00E94570D0E94960CA5
:100B500091E0E82EE926BC2EB2949FE0B922FBE09A
:100B6000FB15B8F1EB2DF0E0E152F44D0C94242B81
:100B7000E12CF1CF0C2F0F70C07F11F00295007F98
:100B8000112399F0002359F080E28D0F883010F086
:100B9000D11107C0802F0E94A00C0E94320D8D2F12
:100BA0005AC0802F0E94B30CF8CF8D2F0E941705DA
:100BB000002379F080E28D0F883010F0D11104C04D
:100BC000802F0E94A60C03C0802F0E94B90C0E94A7
:100BD000320DEB2DE850FF0B349720F40E94832058
:100BE0000E945C04EE2089F00E94920C80FD0DC0F2
:100BF000F60115820E948C0C0E946308C6010E94B7
:100C00008C070E948C0C0E947308CDB7DEB7E9E018
:100C10000C944F2B2C2F2F70F22EC07FC03219F066
:100C2000F29480EFF822DD2341F0D130D1F111238D
:100C300009F444C00023F1F0B2CF8091FB0382FDA0
:100C400015C0112359F0FF2029F08F2D0E94A00C10
:100C50000E94320D80E00E94CE04BBCF80E00E9453
:100C60001705FF2009F4B5CF8F2DABCF112369F005
:100C7000011104C08F2D0E946B05ABCF013009F02C
:100C8000A8CF8F2D0E94DA0CA4CF0111A2CF8F2DF7
:100C90000E9472058F2D0E94E60C8F2D0E94CA0CB7
:100CA00098CF112321F0063008F093CFE3CF053021
:100CB00008F08FCF8F2D0E9472058BCF0023D1F3C8
:100CC000D93349F43FEF87EE93E0315080409040B4
:100CD000E1F700C000008D2F0E9417057ACF8C2FFE
:100CE00086958695837069F0813009F072CF8D2FDB
:100CF0009C2F9370111102C080E090E00E94D820D8
:100D000068CF8D2F9C2F9370111102C080E090E06E
:100D10000E94B3205ECF612F8D2F0E94C40459CF53
:100D20008C2F8370A1F5111154CF4D2F429546950C
:100D30004770440F440F2D2F2F7030E0042E02C057
:100D4000220F331F0A94E2F790E080E0D4FF09C03D
:100D50008FE090E002C0880F991F4A95E2F78095D6
:100D60009095C695C695C370822B932BC23049F0DF
:100D700058F4C13019F00E9433082BCF0E942A0882
:100D800028CF0E943C0825CF0E94270822CF8695B5
:100D9000112311F08C2F8170882309F41ACF4D2F65
:100DA000429546954770440F440F2D2F2F7030E029
:100DB000042E02C0220F331F0A94E2F790E080E075
:100DC000D4FF09C08FE090E002C0880F991F4A95B8
:100DD000E2F780959095C695C695C370822B932BAC
:100DE000C23049F058F4C13019F00E949E08F1CE8B
:100DF0000E949508EECE0E94A708EBCE0E944B08F9
:100E0000E8CECF70112329F08C2F0E9463088D2F1C
:100E100032CF8D2F0E9472058C2F0E947308D9CE7D
:100E2000D23F41F160F4D03FB9F0D13F81F01123BE
:100E300009F443C00111B3CE8C2F8F711FC0D33F73
:100E400001F1D43FA1F78091FB0382FD24C08C2FD8
:100E50008F71112311F312C0112341F0053008F0F6
:100E6000B8CE8C2F8F710E948508B3CE063008F063
:100E7000B0CEF7CF8C2F8F711111CFCF0E946308A6
:100E8000A8CE112329F08C2F8F710E945708A1CE74
:100E90000E9452089ECE112331F063E08C2F8F7197
:100EA0000E94390D96CE81E00E94570D023008F461
:100EB00090CE82E00E94570D8CCE002359F0D9339A
:100EC00009F009CFEFEFF7EE23E0E150F0402040CA
:100ED000E1F7FFCE8C2F8F71A0CF0F931F93CF938D
:100EE000DF93EC018F819885009781F00E943D0F80
:100EF0008C010E94B0080E942608B801CE010E9411
:100F00007905DF91CF911F910F91089568817981C3
:100F10008D810E946609ECCFCF93DF93EC018C8129
:100F2000882399F0CE010E94B803811111C00E945C
:100F3000960C882351F08D81882339F08091FB0332
:100F400082FF03C082E00E94570DDF91CF91089588
:100F5000CE010E946D07CE010E948903F6CF88233F
:100F600021F00E94B30C0E94320D0895882321F0D5
:100F70000E94B90C0E94320D089590E080E00E941A
:100F8000B32090E080E00E94D8200E94C00C0E9414
:100F9000320D0E94131E0E94F71D08950E945D21CC
:100FA0000E94BD0708950E94B00C0E94CE070895CC
:100FB00092959F70963091F058F4925F9F709230A6
:100FC00058F4803F19F030F4883E30F481E0089501
:100FD0009A5FF4CF843FD1F380E00895883EB0F368
:100FE000813FD1F7F3CFFC018481882371F08781A1
:100FF0009085009729F00E943D0F0E94D807089520
:10100000808191810E945B09F8CF80E00895A6E07D
:10101000B0E0EDE0F8E00C943A2B2696E2E00C9478
:10102000562BA9E0B0E0E7E1F8E00C94382B2996C4
:10103000E4E00C94542B08950E941B0808950E942C
:101040001C089093BD028093BC02089508950E94ED
:101050001F0808952091BC023091BD02822B932B72
:101060000E941F0808952091BC023091BD02822386
:1010700093230E941F0808952091BC023091BD0265
:10108000822793270E941F0808950E941B08089535
:101090000E94450808950E9448089093BB028093DF
:1010A000BA02089590E080E00E944B08089521E084
:1010B00030E0A90102C0440F551F8A95E2F7CA012A
:1010C0000E944B08089521E030E002C0220F331F38
:1010D0008A95E2F78091BA029091BB02822B932B02
:1010E0000E944B08089521E030E002C0220F331F18
:1010F0008A95E2F7209530958091BA029091BB02D3
:10110000822393230E944B08089521E030E002C01F
:10111000220F331F8A95E2F78091BA029091BB02A9
:10112000822793270E944B0808952091BA0230919C
:10113000BB02822B932B0E944B0808952091BA0288
:101140003091BB02822393230E944B080895209183
:10115000BA023091BB02822793270E944B08089560
:101160000895262F277091E001C0990F2A95EAF77C
:1011700023E0769567952A95E1F7660F771F660F4E
:10118000771FFA01E60FF71F50E040E0682F70E08C
:101190008191DF0111979B01042E02C0369527959E
:1011A0000A94E2F7217021952827292328272C93D8
:1011B0004F5F5F4F4430510559F70895A82FA7702E
:1011C00023E0969587952A95E1F7880F991F880F58
:1011D000991FFB01E80FF91F50E040E080E02191EA
:1011E00030E00A2E02C0369527950A94E2F7217066
:1011F0003327042E01C0220F0A94EAF7822B4F5F97
:101200005F4F4430510559F70895262F983070F4F8
:10121000853060F4682F70E085E0989F600D711D47
:10122000112446EA52E0822F0E94B1080895292F26
:10123000983068F4853058F490E066EA72E035E062
:10124000239F800D911D11240E94DE08089580E0E7
:101250000895B0E0A0E0EFE2F9E00C94332B7C01BC
:101260000091BA021091BB028091BC029091BD0224
:10127000082B192BCFE0D0E0CC24C394D12CBC2E6A
:10128000C6010C2E02C0880F991F0A94E2F7802332
:101290009123892B49F4219790F7B12C8B2DCDB751
:1012A000DEB7E9E00C944F2BB7018C2F0E9467103A
:1012B000019789F3F3CFCF93DF93EC010E942909C3
:1012C000BE010E946710DF91CF9108951F93CF93C5
:1012D000DF93EB019091A502992339F0CB010E9495
:1012E0005B09DF91CF911F910895882369F0CB01AD
:1012F0000E942909182F682FCE010E940509BE01FE
:10130000812F0E946710EDCFCB010E941709182F83
:10131000F6CFFF920F931F93CF93DF93C091BE023E
:1013200089E0F82E8091BF028C1305C0CDB7DEB7DF
:10133000E5E00C94532BD0E0FC9EF001FD9EF00DF7
:101340001124E054FD4F00811181228133814481B9
:1013500055816681778180850E9411082196C7702A
:10136000E1CF0F931F93009108031091090320917F
:101370000A0330910B0340910C0350910D036091CF
:101380000E0370910F03809110030E9411081F91AA
:101390000F910895CF93DF9380910E03807F09F022
:1013A0004DC080910D03882309F448C0E091BE022E
:1013B0005091BF02C0910903D091080360910A03C4
:1013C00070910B0349E05E17C9F18E2F90E0E49F06
:1013D000F0011124E054FD4F2481222391F1489F14
:1013E000F001499FF00D1124DF01A054BD4F11966B
:1013F0002C9111972C1325C02C912D1322C01596DA
:101400002C91159721111DC012962D913C91261BF0
:10141000370B283C3105A8F480910E038F70806152
:1014200080930E03EA53FD4F80818F70806180832B
:1014300088E093E00E948C070E948909DF91CF9198
:101440000895FC013196E770BECF482F2091BE026F
:101450009091BF0259E0291302C080E0089530E066
:10146000529FF001539FF00D1124E054FD4F8181F4
:10147000681306C08081481303C085818111EECFB7
:101480002F5F3F4F2770E7CFA8E1B0E0EAE4FAE032
:101490000C94302B8C0186E0F801DE01539601900C
:1014A0000D928A95E1F7D80114968C9114971596B0
:1014B000EC90159798E0A92E93E0B92E90910C032B
:1014C00091111FC08823D1F0EE20A9F0C8010E941D
:1014D000F307F82E882379F089E0F801D50101900F
:1014E0000D928A95E1F7C5010E94BB040E94CA09CA
:1014F0000E94B10946C0C8010E948C07FF24F394E2
:1015000040C0F801C080D18082809380F0900D03AC
:1015100020910A0330910B03A401421B530BFF20BF
:1015200009F42EC1483C510508F0CCC0882349F18C
:101530009091090380910E03282F207F09F070C03D
:10154000D91224C090910803C91220C040910F0302
:10155000509110032781308542175307B9F4E110E9
:1015600059C08F70806180930E030E94B10988E09A
:1015700093E00E948C0780910E03D80116968C93FD
:10158000F12C8F2D6896ECE00C944C2BE11042C0AE
:101590006D2D8C2D0E94250AE82E882371F088E09D
:1015A00093E00E948C0789E0E8E0F3E0DF011D9200
:1015B0008A95E9F70E94B109E3CFCB8ADC8A8B894F
:1015C0009C890E945B09292F22952F70243058F4A2
:1015D0009F70223088F0992399F0F8019681907FCE
:1015E00079F4FE2CCECF2A5F2F70223068F0C8012C
:1015F0000E948C07EF2CF5CF992311F0882389F3F3
:10160000805E883070F3F3CF803F58F3815F833082
:1016100070F7E7CF80910E03816080930E03B0CF07
:10162000D9121FC090910803C9121BC040910F032B
:101630005091100317962D913C911897421753071C
:1016400081F4E1100EC016968C93C8010E948C079D
:1016500089E0F801A8E0B3E001900D928A95E1F7E6
:1016600047CFC8010E94F307882309F444CFEE2036
:1016700009F441CF80910E038032B8F02091080325
:10168000309109033B872A879D868C8690910C03B5
:101690009E871F86888B80910F03909110039A8BF1
:1016A000898BCE010A960E948C0789E0F801A8E098
:1016B000B3E001900D928A95E1F70E94CA090E9459
:1016C000B1091CCF90910E03292F207F91F4682D32
:1016D0009E8A8D8AA6017E899E2D0E94070888E039
:1016E00093E00E948C0789E0F50111928A95E9F751
:1016F00061CF882309F445CF809109038D111CC067
:1017000080910803C81218C040910F035091100334
:1017100017962D913C9118974217530769F4E110E1
:101720000BC016969C93C8010E948C0789E0F501B6
:1017300011928A95E9F725CFC8010E94F307882303
:1017400009F4D9CEEE2009F4D6CE80910E03803272
:1017500008F4ABCF20910803309109033A83298321
:101760009C828B8290910C039D831E828F8380913B
:101770000F039091100399878887CE01019693CF2C
:10178000483C510578F5882309F4B8CEFE2CEE20AC
:1017900009F4B1CE809109038D1116C08091080320
:1017A000C81212C020910F033091100317968D912B
:1017B0009C912817390741F489E0A8E0B3E0019033
:1017C0000D928A95E1F7DDCEC8010E94F3078111E1
:1017D0006CCF80910E03816080930E03C8010E943C
:1017E0008C07CFCE682D9E8A8D8AA6017E899E2D7C
:1017F0000E94070889E0F50111928A95E9F778CEF1
:10180000A2E1B0E0E6E0FCE00C94372B0A871B87EE
:101810002C873D874E875F87688B798B8A8BCE01BB
:101820000A960E94440A8823C9F04E85442351F049
:101830000A851B852C853D855F85688979898A891C
:101840000E94110889E0F82E8091BE029091BF029B
:1018500089133DC06296E5E00C94532B89E0FE01AC
:101860003A96DE01119601900D928A95E1F78E85E8
:10187000882341F32091BF0230E0C90101968770AF
:1018800099274091BE024817190699F099E0929F56
:10189000D001939FB00D1124A054BD4FFE0131968D
:1018A00001900D929A95E1F78093BF020E948909F9
:1018B000C9CF0E94D3071092BF021092BE0289E0E6
:1018C000E8E0F3E0DF011D928A95E9F7BBCF8F9D39
:1018D000C001112480549D4F0E94440A882309F4BA
:1018E000B9CFE091BE02FE9EF0011124E054FD4FFD
:1018F0000081118122813381448155816681778104
:1019000080850E9411088091BE0290E00196877048
:1019100099278093BE0298CF80911903869586956A
:101920008695089580911903877008959091190301
:10193000977081E009F480E008958091250308956F
:1019400090912503892B809325030895809590918C
:1019500025039823909325030895809325030895E4
:1019600010922503089590912403892B80932403DA
:1019700008958095909124039823909324030895CB
:1019800010922403089580911B03089508950E94E6
:10199000C60C089590911A03292F282331F08095C1
:1019A000892380931A030E94C70C089508950E940A
:1019B000D60C089590911B03292F2823281729F06E
:1019C000982B90931B030E94D70C089590911B03B2
:1019D000292F282331F08095892380931B030E94AF
:1019E000D70C089580911B03882329F010921B03C4
:1019F00080E00E94D70C08950F931F93CF93DF933D
:101A00000091D2011091D301C0912503809124034C
:101A1000C82B80911B03882331F0C82B0E94FD2026
:101A200081110E94F20CF801C083C091D201D091C3
:101A3000D30148E050E061E173E0CE010E94752BD4
:101A4000892B59F088E0FE01A1E1B3E001900D92ED
:101A50008A95E1F7CE010E949A20DF91CF911F91E4
:101A60000F9108950E94FC0C089508950E94350D71
:101A700008959091FB0392FF11C098E0899F900117
:101A80001124622B609319030E946308809119034B
:101A90008695869586950E94360D08950E94630866
:101AA00008951092190380E00E94360D08959091D8
:101AB00019038095892380931903282F277069F4CF
:101AC000891759F09091FB0392FF07C08695869580
:101AD00086950E9473080E94510D08959091FB0312
:101AE00092FB222720F9281769F080FB92F9909346
:101AF000FB038091FA039091FB030E94B60D82E0F4
:101B00000E94570D08958091FB0382FB882780F97E
:101B100091E089270E946E0D089581E00E946E0D6C
:101B2000089580E00E946E0D08956FEF7FEF90E0C2
:101B300080E00E94C72B089590E080E00E94932BE4
:101B400021E0853E9E4F09F020E0822F089582E03B
:101B500090E00E948B2B089583E090E00E948B2BF5
:101B6000089584E090E00E94932B0895BC0184E0E6
:101B700090E00E94C72B0895AB01BC018FE090E07C
:101B80000E94BB2B0895AB01BC0183E190E00E9451
:101B9000BB2B089560E070E0CB010E94C30D089557
:101BA00060E070E0CB010E94BC0D0E94CA0D089558
:101BB000A8E0B0E0EEEDFDE00C943A2B65EE7EEF90
:101BC00090E080E00E94C72B60E082E090E00E94FD
:101BD000A92B81E090E09093BD028093BC0261E06C
:101BE00083E090E00E94A92B60E074E184E090E043
:101BF0000E94C72B60E086E090E00E94A92B60E085
:101C000087E090E00E94A92B40E050E0BA0188E014
:101C100090E00E94BB2B60E083E290E00E94A92B41
:101C200060E08CE090E00E94A92B60E08DE090E005
:101C30000E94A92B19821A821B821C821D821E827D
:101C40001F82188648E050E067E170E0CE010196FF
:101C50000E94992B40E050E0BA018FE190E00E9491
:101C6000BB2B0E94D00D2896E2E00C94562B0E94CC
:101C7000D80D0895682F8EE090E00E94A92B08955A
:101C8000A6E0B0E0E6E4FEE00C94382B0E943A2295
:101C90008C0180912603909127038017910781F092
:101CA00019821A820E943A22682F49815A81792F1B
:101CB00080E090E00E94870410932703009326039E
:101CC0002696E4E00C94542B0E9483116093340315
:101CD00070933503809336039093370360933003FA
:101CE00070933103809332039093330308950895E2
:101CF00008950E94770E089508950E947C0E08951D
:101D000081E008958DE991E10E9455150E94780EB9
:101D10000E94790E08950E944C1308950895089525
:101D20000E948E0E0E948F0E08950E949C0D8111BC
:101D300002C00E94370E0E94A70D809338030E94B4
:101D4000B10D9093FB038093FA030E9418170E9431
:101D5000AC0D90E00E9427088091BA029091BB02DE
:101D60000E94480808950E9431220E945D110E943D
:101D700052130E9472120E94950E0E945B040E94F0
:101D8000B8150E946F1B0E9464130E947D0E089577
:101D90000E944C13882321F00E9470190E94F417AE
:101DA0000895A6E0B0E0E7EDFEE00C94312B0E9430
:101DB000800E81110CC00E94400E0E94C80E0E942D
:101DC000351E0E946E042696EBE00C944D2B0E946B
:101DD000C61288E2A82E83E0B82E750110E0F70144
:101DE00001917F01812F0E94A7111F5F183009F414
:101DF00041C00817A1F38091380381FD0E94AD1105
:101E00000E948B0EC82E10E099249394812F0E947B
:101E1000A711082FF50181915F01081729F1F12C15
:101E2000EE24E394D02ED8268D2D8E21A9F0CC203F
:101E300099F0F9821A830E943A229C838B839D82B7
:101E400091E0802F8E2109F490E049815A816B81C5
:101E50007C818D810E948704F394EE0CF5E0FF12E3
:101E6000E3CFF501319700831F5F183079F60E94A8
:101E7000640EA3CF0813BFCF9ECF1F93CF93DF93E2
:101E80000E946C10EC01C11580E5D807F0F5C11572
:101E900080E4D80708F09CC0C03ED10520F5CD3CB9
:101EA000D10508F082C0C83AD10578F4C53AD10509
:101EB00008F073C0C130D10519F1209709F1C43081
:101EC000D105F0F4D0E0C0E01BC0C33CD105D0F791
:101ED000C85AD0E0CC0FDD1FCE59DD4F0990D88114
:101EE000C02DD4640DC0C11580E2D80708F0D1C060
:101EF000C11581E0D80708F05AC0C83ED10510F7D7
:101F0000CE01DF91CF911F910895C03682E5D807A9
:101F100018F5C03482E5D80708F06BC0C03282E5FE
:101F2000D80708F05FC0C11582E5D80708F497C04C
:101F30002C2F2695269580E2289F900111248C2F26
:101F40008370C1E0D0E002C0CC0FDD1F8A95E2F7BC
:101F5000C22BD32BDD68D4CFC03A82E5D80760F41A
:101F6000C03882E5D80708F459C0CF71D0E0DC2F23
:101F7000CC27C46FD06AC4CFC03C82E5D80708F430
:101F800062C0C03E82E5D80708F09CCFDC2FCC278A
:101F9000CC27DF71C06FD06AB3CFC55AD0E0C85626
:101FA000DD4FC881D0E0D064ABCFD065A9CF8D2FF5
:101FB0000E940E11182FCE0199270E946C10C12F7C
:101FC000D0E0DC2FCC27CC27DF71C82BD92B98CFC2
:101FD000CE0199270E946C10CC27DF70C82BD92B1B
:101FE000D06A8ECFCF71D0E0DC2FCC27C16FD06A02
:101FF00087CF2C2F26952695277080E2289F900169
:1020000011248C2F8370C1E0D0E002C0CC0FDD1F03
:102010008A95E2F7C22BD32BDC6872CF2C2F269542
:102020002695277080E2289F900111248C2F8370C1
:10203000C1E0D0E002C0CC0FDD1F8A95E2F7C22BD1
:10204000D32BDA685DCF8C2F8F710E940E11C82FB1
:10205000D0E0DC2FCC27CC27DF71D06251CF8C2F82
:102060008F710E940E1155E0D695C7955A95E1F7EC
:10207000CF70D0E0DC2FCC27282F30E084FF05C0C4
:1020800044E0220F331F4A95E1F7C22BD32BD069CE
:1020900037CF8D2F8F710E940E11182FCE019927E7
:1020A0000E946C10C12FD0E0DC2FCC27CC27DF7131
:1020B000C82BD92BD2CF462F783030F4653020F49E
:1020C000672F0E948602089590E080E008950E94A4
:1020D0005B100E943D0F089582389105B9F1B0F46C
:1020E0008133910509F47DC048F48932910509F4E2
:1020F0006DC08A32910509F47BC00895853391053E
:1021000009F45FC08933910509F10895833E910573
:10211000D9F138F4803E910529F1823E910579F19B
:102120000895863E9105D9F1873E910509F43EC098
:10213000843E910541F52091FB0321FF24C080914D
:10214000FA0384FD19C087EE90E008952091FA0308
:10215000237009F05AC02091FB0323FF14C089E2C9
:1021600090E008952091FA0320FD38C03091FB03E0
:1021700030FF09C024FF43C090E080E00895209123
:10218000FA0322FDF7CF08952091FA0322FD3AC009
:102190003091FB0330FD39C024FFF5CFEDCF209106
:1021A000FA0323FFF0CF24FDE7CFCDCF2091FA0330
:1021B00023FD2EC03091FB0331FFEECF84EE90E083
:1021C00008952091FA0325FFDECFC9CF2091FA03AD
:1021D00025FD21C02091FB0323FFD5CF89E390E0AB
:1021E000D2CF2091FA0326FFCECF8AE290E0089565
:1021F0002091FA0326FFC7CF81E390E0089583EE94
:1022000090E0089582EE90E0089580EE90E00895C9
:1022100086EE90E0089585E390E008959091FA03AA
:1022200092FF10C041E0282F2471243009F040E0D3
:1022300031E0282F2871283009F030E0431711F0E1
:102240002CE0822793FF10C041E0282F2471243115
:1022500009F040E031E0282F2871283109F030E002
:10226000431711F02CE082273091FB0330FF10C0A0
:1022700051E0282F2171213009F050E041E0282F52
:102280002871283009F040E0541711F029E0822726
:1022900031FF10C041E0282F2171213109F040E0C9
:1022A00031E0282F2871283109F030E0431711F070
:1022B00029E0822794FD877E08951092FC031092F6
:1022C000FD031092FE031092FF030895CF92DF9258
:1022D000EF92FF926B017C010E944C1381110EC0A2
:1022E0000E944622C61AD70AE80AF90AC092FC03DD
:1022F000D092FD03E092FE03F092FF03FF90EF9077
:10230000DF90CF9008950F931F930E944C13882362
:1023100029F00E9446221F910F9108950E944622A3
:102320000091FC031091FD032091FE033091FF0307
:10233000600F711F821F931FEECF80E008950895F4
:102340000E949F11089508950E94A3110895E82FF7
:10235000F0E0E75FFB4F80810895089508950E94A3
:10236000AE110895EF92FF921F93CF93DF9300D0A9
:1023700000D0CDB7DEB70E944C13182F6091110426
:10238000882309F447C019821A821B821C82862F77
:1023900090E09E012F5F3F4F7901B901875F9B4F0E
:1023A0000E9472138823E9F08091000490E044E0D9
:1023B00050E0B701875F9B4F0E94752B21E020936F
:1023C0003903892BC9F410E00E94A411812F0F90CA
:1023D0000F900F900F90DF91CF911F91FF90EF9092
:1023E000089580913903882371F384E0F7011192F5
:1023F0008A95E9F710923903E0910004F0E0E75F75
:10240000FB4F89819A81AB81BC8180839183A283B8
:10241000B383DACF70E0675F7B4F8091000490E078
:10242000875F9B4F0E94F9130E94AF11CFCF1F937C
:10243000CF93DF9324ED31E0C1E0D0E0D90150E04B
:1024400040E08D918F3F91F0E82FE295EF70F0E042
:1024500011A18F70BE0101C0660F8A95EAF7962F11
:102460009095912391A382A1862B82A34F5F5F4F0A
:102470004530510531F72B5F3F4F81E0283E38074B
:10248000E9F6DF91CF911F910895CF93DF93AC01CF
:10249000A62FB0E085E0689FF0011124EC52FE4FBA
:1024A00070E081E060E091919F3FD1F0C92FC2952B
:1024B000CF70D0E028A130E09F7002C035952795FD
:1024C0009A95E2F720FD0CC0282F622B7F5F880FC2
:1024D000753049F7A40FB51F6C93DF91CF91089524
:1024E00020E0F3CFA4E1B0E0E8E7F2E10C943A2B6E
:1024F0008091E801811126C084E1E5E1F2E0DE018E
:10250000119601900D928A95E1F7FE013196A4EDA6
:10251000B1E0CE01459620812C93218111962C9318
:102520001197228112962C931297238113962C9344
:102530001397248114962C931497359615968E171D
:102540009F0749F78091E80194E0811190E0909312
:10255000110484E0891B809300040E94171288E014
:10256000E9E0F4E0DF01982F1D929A95E9F7E1E0A8
:10257000F4E0DF011D928A95E9F784E00E940413DC
:102580000E94A0116496E2E00C94562BA8E0B0E003
:10259000ECECF2E10C94372B8E010F5F1F4F88E0BB
:1025A000F80111928A95E9F7F12C6F2DC8010E946C
:1025B0004512F394F4E0FF12F8CF48E050E0B80180
:1025C00081E094E00E94752B21E0009709F420E05F
:1025D000892B41F088E0F801A1E0B4E001900D9270
:1025E0008A95E1F76091110470E0675F7B4F44E0EA
:1025F00081E094E00E940513182F0E94B211812BF4
:102600002896E5E00C94532B0895B0E0A0E0EBE0B1
:10261000F3E10C94342B6C017B01042FC22F222395
:1026200079F081E080933C030E943A2290933B032F
:1026300080933A0380E0CDB7DEB7E8E00C94502BEE
:10264000D0913C03DD23B1F380913A0390913B0399
:102650000E945222059770F310E0A801B601C7014D
:102660000E94752B892B31F0A801B601C7010E9489
:10267000822BCD2F10923C038C2FDDCFCF930E9465
:10268000032BC82F811102C00E94FE2A8C2FCF91EC
:10269000089580914003089580913F0308950E941A
:1026A0004C1308950E943E1380933F030E944F13E2
:1026B000809340030E9449138093E8010E944C13C9
:1026C00081110E94A81308950E944C13811102C029
:1026D0000E94AB13089581E0909141039A3008F075
:1026E00080E008950F931F93CF93DF93EC018B014C
:1026F000809141038A30B8F4B801CE010E94F613EC
:10270000C82F811122C0809141038F3FB9F40E94EC
:102710003A2290933E0380933D038C2FDF91CF911B
:102720001F910F91089580913D0390913E030E9467
:102730005222843F914000F7C0E0EFCF8F5F80933B
:1027400041038A3020F7C1E0E8CF10924103E5CF82
:102750000E94172308950E941A230895B0E0A0E074
:10276000E4EBF3E10C94352B7901C82F880FDD0BD6
:1027700041155105A9F0FE0193E0EE0FFF1F9A9558
:10278000E1F7E751FE4F818192818E5B9C4F208162
:1027900030E04217530708F49A01A9010E94822BE6
:1027A000CE010E940324D82E8823D1F001151105F3
:1027B000B9F083E0CC0FDD1F8A95E1F7FE01E75108
:1027C000FE4F438150E00417150708F4A801C751D4
:1027D000DE4F6C817D816E5B7C4FC7010E94822B36
:1027E0008D2DCDB7DEB7E7E00C94512B0E94F0148D
:1027F00008950E9407150895A4E0B0E0E2E0F4E136
:102800000C94382B609157037091580380915903B1
:1028100090915A030E94612211E06436710581058E
:10282000910518F10E9483116E5F7F4F8F4F9F4F6C
:1028300069837A838B839C8310E000E030E020E0A2
:1028400044E050E0BE016F5F7F4F82E00E94AE1314
:10285000182F882351F00E944622609357037093EB
:1028600058038093590390935A03812F2496E4E0F0
:102870000C94542BB0E0A0E0E0E4F4E10C94322B93
:102880007C015B016A010E946B1301E010E0882368
:1028900011F00AE010E0C1E0D0E0B501C701F60197
:1028A0000995811104C021960C171D072CF4CDB792
:1028B000DEB7EAE00C944E2BCC9F9001CD9F300DFB
:1028C000300D112490E080E045E34A95F1F70000D7
:1028D000019682179307C1F7E0CFA5E0B0E0E3E7E8
:1028E000F4E10C94322B5B01E0909B02F0909C028F
:1028F00001E010E09E012B5F3F4F50E040E070E0B0
:1029000060E080E00E94AE13182F882309F44BC0CA
:1029100067018FEFC81AD80A60915303709154036E
:1029200080915503909156030E946122643671058F
:102930008105910580F104E010E09E012F5F3F4F7B
:1029400050E040E070E060E081E00E94AE13F82EBD
:1029500064E070E0C6010E94701B11E09D81981335
:1029600010E01F2159F10E94462260935303709397
:102970005403809355039093560389819A81AB81C8
:10298000BC8180934F0390935003A0935103B09365
:10299000520311E013C064E070E0C6010E94701B96
:1029A0009D818913C8CFF70181819281A381B48170
:1029B00089839A83AB83BC831111DFCF80914F034E
:1029C00090915003A0915103B0915203F50180837F
:1029D0009183A283B383812F2596EAE00C944E2B3A
:1029E0000F931F93CF93DF93EC018B014DE654E1DE
:1029F0000E943A14882331F04CEF53E1B801CE0124
:102A00000E943A14DF91CF911F910F9108950F9377
:102A10001F93CF93DF93C0919B02D0919C02CE0174
:102A2000019624E0FB01DC0101900D922A95E1F76B
:102A300064E070E00E94701B88836D817E818F81CD
:102A4000988500914B0310914C0320914D033091D8
:102A50004E03601771078207930751F060934B0391
:102A600070934C0380934D0390934E030E94661124
:102A7000DF91CF911F910F9108950E94D10E08957B
:102A80000E94D3210E94BA250E94820E0E94D42562
:102A90000E94B30E0E94E1250E94E6250E943D158A
:102AA0000E9400260E94900EF7CF90939F02809381
:102AB0009E020895FB012581222341F097FF06C065
:102AC0009F77BC0190E080E00E949E1681E008950F
:102AD0000F931F93CF93DF93EC018B01FB01858153
:102AE000882389F00E949D0C8272FE01E053FC470E
:102AF000E830F10540F4E551F44D0C94242B882383
:102B000069F00E94D015B801CE010E945A15DF91DC
:102B1000CF911F910F910895882399F30E94CF15AB
:102B2000F2CF80E00E94C115EECF81E0FBCF82E0C2
:102B3000F9CF83E0F7CF84E0F5CF85E0F3CF909134
:102B40001304923071F48A3050F490E009966AE0F0
:102B500070E00E94102B875A0E94620508958650EB
:102B6000FBCF0E94CB1F089508950E94B4150895CD
:102B70008CE090E00E948B2B809313040E94B5158B
:102B80000895CF93C82F80931304682F8CE090E0B2
:102B90000E94A92B8C2F0E94B515CF9108950895FE
:102BA00008950E949720809312049091130491300D
:102BB00029F481FF03C089E30E9462050E949D0CF5
:102BC000809314040E94B00C0E94C00C80911304E6
:102BD000823021F158F48823C1F08130D1F08FE3A5
:102BE0009CE90197F1F700C000000895843051F18D
:102BF0008530A9F78BE191E00E94170385E290E010
:102C00000E94170388E290E006C082EE0E94CE0484
:102C1000E6CF88E193E00E941703E1CF8091120490
:102C200080FD03C083E50E94620582EE0E94CE040F
:102C30008FE39CE90197F1F700C0000087E50E944F
:102C40006205CDCF86EE0E94620588E1F8CF8091C3
:102C50001304823011F148F4882381F0813091F01F
:102C6000809114040E94AD0C08958430F9F08530F1
:102C7000B9F788E290E00E941703F2CF82EE0E943B
:102C80001705EECF8CE20E9462058091120481FF4D
:102C9000E7CF89E30E946205E3CF82EE0E94170529
:102CA0008091120480FDDCCF83E5F4CF88E2F2CF7F
:102CB0008F929F92AF92BF92EF92FF920F931F93CA
:102CC000CF93DF934B015C01D09113048CE1E82E8C
:102CD000F12C07E010E021E0D501C4010E2C04C066
:102CE000B695A795979587950A94D2F7C82FCF7078
:102CF000222339F0D43051F4CA3040F080E00E94F1
:102D00009F158C2F0E949F1520E005C0C111F9CF9F
:102D100004301105B4F30150110984E0E81AF108F8
:102D20000F3F1007C9F6DF91CF911F910F91FF90D0
:102D3000EF90BF90AF909F908F900895CF92DF92C9
:102D4000EF92FF926B017C01C114D10481E1E8068E
:102D5000F104A0F5C114D10481E0E806F10420F0EB
:102D600080911304823051F10E94D115C114D10415
:102D700081E0E806F10438F180911304811123C049
:102D800081E0E81AF108C701B6012AE09695879517
:102D9000779567952A95D1F778528F4F9F4F0E946C
:102DA000581683E0D822EE24FF24C701B6017452DE
:102DB0008F4F9F4F0E9458160E942716FF90EF904A
:102DC000DF90CF900895C701B601F4CF0E94950D12
:102DD0000895CF930E944913C4E08111C0E08C2F65
:102DE0000E94A71121E030E002C0220F331FCA95D4
:102DF000E2F790E02823392381E0232B09F480E0D7
:102E0000CF9108950E94C6122FEF86E791E02150DE
:102E100080409040E1F700C000000E94C6120E946E
:102E2000E916882321F00E94E6160E94A122089547
:102E30000E94021708958832910548F48E31910559
:102E4000A0F4049750F082E00E94B30C0EC08D32C3
:102E50009105C9F320F48A9741F080E008958C34FD
:102E6000910519F08D329240C1F781E00895B0E0EC
:102E7000A0E0EDE3F7E10C94352BEC017B01C337C7
:102E80008CE7D80769F4FB011581112319F00E9422
:102E9000061810E0812FCDB7DEB7E7E00C94512B78
:102EA0000E949D0C082F0E94C30CD82E0E94D3179D
:102EB000811102C011E0EECF0E94CA17F7011581FF
:102EC0001123C1F30D290D7909F055C0C034F2E585
:102ED000DF0728F5C11582E5D807E0F6C115E0E463
:102EE000DE0798F4C115F0E2DF07B8F5C63ED1055C
:102EF00089F20E94C00CCE010E941B17C82F8823A4
:102F0000D1F10E94320D1C2FC5CFC11580E5D80725
:102F100080F7F7018681807F69F2DD27EACFC03E26
:102F2000E2E5DE07A0F4C03CF2E5DF0708F0B2CF2F
:102F3000C03682E5D807E8F2C03AE2E5DE0708F4D9
:102F4000A9CFC43BF2E5DF0709F4A4CFD2CFCE016D
:102F500087579C47029768F69DCFF7018681807F4F
:102F6000E1F68D2F8F71823191F040F4C1EED0E007
:102F7000823009F4BECF0E94E7178CCF843109F468
:102F800089CFC6EED2E1863109F4B3CFF4CFC5EED6
:102F9000D0E0AFCF0E943A2288579C4E90935C03BA
:102FA00080935B03089580915D0308950895809157
:102FB0005D0381110BC00E94B00C0E94F20C0E94B4
:102FC000CA1781E080935D030E94D617089580910F
:102FD0005D03882341F082E20E94B60710925D03F0
:102FE00080E00E94D617089580915D03882369F0E0
:102FF0000E943A2220915B0330915C03821B930B69
:103000008F3F9F4710F40E94E717089580915D035A
:10301000882319F00E94E71708950E94D717089592
:103020000895EF92FF920F931F93CF93DF938091B8
:10303000D103882361F0E0915E038DE0F82E80914A
:10304000D103E81748F01092D10310925E03CDB778
:10305000DEB7E6E00C94522BEE24E394EE0EE09201
:103060005E03CE2FD0E0EF9DF0011124E759FC4F15
:1030700084818823B1F087819085892BA1F4818593
:1030800092858F3F980779F061E00E941018FC9EAE
:10309000F001FD9EF00D1124E759FC4F14820E94AF
:1030A000C00CEE2DCCCF008111812281338144816F
:1030B00055816681778180850E94000CE8CF089554
:1030C000CF93DF931092D3031092D203D0E0C0E0ED
:1030D0000E948902C817D90718F0DF91CF9108958F
:1030E000CE010E948C02FC018581811102C01482F4
:1030F00016822196EDCF1F93CF93DF931091670334
:10310000209168032117D1F0C12FD0E0FE01EE0F0E
:10311000FF1FE15AFC4F408151814817590791F434
:103120000E948C0221E0FC012483809167038113BB
:1031300005C02196C370DD27C0936703DF91CF914F
:103140001F91089521961C2F1370DCCFB0E0A0E0F2
:10315000ECEAF8E10C942F2BEB012C81211153C0E8
:103160007090D103A9E6B3E030E020E0812C61E06B
:1031700070E0271508F045C01B96CD90DC901C9799
:10318000A880B9804FEF5FEF912CE92CF12CF7016B
:10319000EE0FFF1FEA0DFB1D05911491C016D1061D
:1031A00009F4A7010115110511F09394EECF4F3FDB
:1031B000540789F1FB0102C0EE0FFF1F4A95E2F7A9
:1031C0008E2AAB01092C02C0440F551F0A94E2F766
:1031D0004150510984161506D9F44A815B816DE08E
:1031E000629FF001639FF00D1124E759FC4F508757
:1031F000478324E02483108211829287818721E013
:103200002D830E947B18CDB7DEB7EDE00C944B2BDD
:1032100014961C9214972F5F3F4F1D96AACF0F93C1
:103220001F93CF93DF93C0916703809168038C1342
:1032300009C00E9411180E946018DF91CF911F9160
:103240000F910895D0E08E01000F111F015A1C4FFD
:10325000F801808191810E948C02BC01F80180817B
:1032600091810E94A6182196C370DFCFEF92FF9242
:103270001F93CF93DF93FC012081318110E040E068
:1032800050E0E52FF0E0EE0FFF1FE20FF31FA591D6
:10329000B4911097B9F0FB01C081D18140E005C025
:1032A000AE15BF0509F411E04F5FE42FF0E0EE0F1B
:1032B000FF1FEC0FFD1FE590F490E114F10481F77E
:1032C0005F5FDFCF112349F0451708F4CB01DF9191
:1032D000CF911F91FF90EF90089590E080E0F7CF9D
:1032E00080910102882341F18091D4039091D5030C
:1032F000009711F10E9452222091D2033091D30302
:1033000028173907C8F490916703809168039817CC
:1033100059F00E940F191092D3031092D203109209
:10332000D5031092D40308950E9411181092D5036A
:103330001092D4030E94601808951092D503109241
:10334000D4031092010280916803809367030E9466
:1033500060180E941118089580910102882319F0C5
:103360000E949D19089581E0809301020895ACE0C8
:10337000B0E0EDEBF9E10C942A2B4C016B018035A8
:103380002CE7920761F4FB0115811123E9F081E03C
:1033900080930102812F2C96E2E10C94462B81351B
:1033A000FCE79F0739F4FB011581112369F00E94A6
:1033B0009D19F0CF82359C4739F4FB01158111230B
:1033C00019F00E94AC19E6CF2091BA023091BB02ED
:1033D0008091BC029091BD02822B932B0E94240409
:1033E000182F0E945F18181731F0F6016081718163
:1033F0000E945B104C01B12CA12C1C8666246394A6
:10340000712CCE0101969B878A870E948902A8169B
:10341000B906C0F1F6018581882309F44EC1FC8507
:10342000FF2309F44AC10E943A229093D503809366
:10343000D4038091D103883008F591E0980F9093E0
:10344000D10399E0F601DE01119601900D929A9553
:10345000E1F72DE0829FC001112487599C4F29E09C
:10346000FE013196DC0101900D922A95E1F72FEFD4
:103470003FEFFC01328721879486838611E0FC852B
:103480001F2788CFC5010E948C027C01FC0140816E
:10349000518144244A94542C60E0262F30E0F901F5
:1034A000EE0FFF1FE40FF51F859194918816990682
:1034B00009F42901892B11F06F5FEFCF312CFFEF59
:1034C0004F165F0609F445C0F701448130900102B0
:1034D000832D411180E0F82FF1703F2EF7012580F8
:1034E0008681F6019581992309F483C0332009F47C
:1034F00080C0211015C09301042C01C0220F0A9432
:10350000EAF7822BF70186838091D2039091D3034F
:10351000889730F488E290E09093D3038093D203AD
:10352000C30102C0880F991F6A95E2F70197F7015E
:1035300026812817190669F48091D4039091D50348
:10354000009771F00E945222899750F021E0F70114
:103550002483FC85F329FC872FEFA21AB20A55CFEA
:103560002090670390E080E020916803221215C04C
:10357000E816F90671F3422C512CF201EE0FFF1FF1
:10358000E15AFC4FB182A0822FEF421A520A83E027
:103590004822552440926803DCCF422C512CF20182
:1035A000EE0FFF1FE15AFC4F808191810E948C0237
:1035B0008C01B7010E9436190097A1F021E0FC01AF
:1035C0002483E816F90629F22091670322120AC023
:1035D0000817190739F492012F5F3F4F23703327E3
:1035E00020936703EFEF4E1A5E0AF42DF3702F2E2F
:1035F000BBCF90E021101FC0930102C0220F331FE8
:103600006A95E2F7215031092817390731F444232C
:1036100009F451C0C5010E947B18C301042C01C0EC
:10362000880F0A94EAF7982F9095F70186818923ED
:103630008683322C8ECFAC01042C02C05595479561
:103640000A94E2F7BA01617077279C012150310991
:1036500082239323892B59F5672B49F1F701828146
:103660009381892BF9F0EA85FB8527E011922A9551
:10367000E9F70E943A22282F8B839C8384E08D8374
:10368000F70182819381782F8887998709811A8130
:103690003C8144E05E816F81892F0E94000CF7011C
:1036A0001582BBCF60E0C5010E941018F8CFF42F3F
:1036B000F1702F2EB2CF232CB0CF90916703809161
:1036C0006803981719F00E940F19D8CE0E9411189C
:1036D0001092D5031092D4030E946018CFCE0895A3
:1036E000FC01680F791F8FEF91E3E617F70709F4E4
:1036F00008952191822728E030E087FF06C0880FD7
:10370000892721503109C9F7F0CF880FFACFCF931D
:10371000DF93EB0186319C4711F50E949D0C9D8142
:10372000992399F08A7A91E009F490E09093D60376
:10373000811109C089E20E944D210E94320D80E072
:10374000DF91CF91089585E3F6CF8091D603811163
:1037500004C089E20E945521F0CF85E3FBCF81E0D0
:10376000EFCFCF93DF93EC01FB018581882309F430
:10377000D2C09E0130572332310508F0B2C00E94FA
:10378000B10D9093FB038093FA03FE01E150F047E3
:10379000E232F10520F4ED50F44D0C94242B80918D
:1037A000FA0381608093FA0393C08091FB038860E1
:1037B0008093FB038DC08091FA038260F3CF8091E8
:1037C000FA038460EFCF8091FA038860EBCF809199
:1037D000FB038160EDCF8091FB038260E9CF809194
:1037E000FA038061DFCF8091FA038062DBCF8091A2
:1037F000FA038064D7CF0E94D3078091FA038068D0
:10380000D1CF8091FA038C60CDCF8091FB03836090
:10381000CFCF8091FA038E7FC5CF8091FB03877F46
:10382000C7CF8091FA038D7FBDCF8091FA038B7F44
:10383000B9CF8091FA03877FB5CF8091FB038E7F4C
:10384000B7CF8091FB038D7FB3CF8091FA038F7E3A
:10385000A9CF8091FA038F7DA5CF8091FA038F7B4A
:10386000A1CF0E94D3078091FA038F779BCF8091DD
:10387000FA03837F97CF8091FB038C7F99CF809150
:10388000FA0382FB992790F921E0922790FB82F9B5
:1038900090FB83F987CF8091FB03982F90959170CF
:1038A0008E7F892B90FB81F983CF9091FA03892F2A
:1038B0008F7B96FF806476CF0E94D3079091FA03A6
:1038C000892F97FB87F980586DCF81E00E943A0ECF
:1038D0008091FA039091FB030E94B60D0E94D307DA
:1038E00080E0DF91CF91089580E0F0CF9091FA03CE
:1038F000892F8F7E94FF806155CF9091FA03892F95
:103900008E7F90FF81604ECF9091FB03892F877F40
:1039100093FF88604DCF81E0E4CF282F35EB230360
:10392000C001112497FF04C080589109892F089580
:1039300080589F4FFBCF8091DD0380FF0DC06091C9
:10394000070270E0660F771F6038710570F561152A
:10395000710569F1862F089581FF07C06091070204
:1039600084E0689FB0011124EFCF6091070282FDCF
:103970000AC08091DC038823A9F02091060260919F
:103980000702821710F088E0ECCF869FC001112457
:1039900033E0880F991F3A95E1F7622F70E00E949B
:1039A000102BD2CF68E070E0D5CF8FE7089581E08B
:1039B00008958091DD0380FF0CC06091030270E0E8
:1039C00075956795759567956115710549F1862F10
:1039D000089581FF06C06091030270E075956795B8
:1039E000F3CF6091030282FD0BC09091DB0399231A
:1039F000A1F06091020280910302961738F0682FBF
:103A000070E06038710500F38FE70895899FC00169
:103A1000112470E00E94102BF4CF61E070E0D7CF4A
:103A200081E008959091E0032091E103922B209191
:103A3000E303922B2091E203922B31F098E09093D4
:103A4000DC0391E09093DB038D3C31F40E949B1CDE
:103A500081958093E10308958E3C19F40E949B1C8C
:103A6000F8CF8F3C31F40E949B1C81958093E0033A
:103A70000895803D19F40E949B1CF8CF893D29F4DC
:103A80000E94D91C8093E20308958A3D21F40E948C
:103A9000D91C8195F7CF8B3D31F40E94D91C8195BB
:103AA0008093E30308958C3D19F40E94D91CF8CF4C
:103AB0009FE2980F983070F4815D990B21E030E01F
:103AC00001C0220F8A95EAF78091DF03822B809351
:103AD000DF0308958D3D31F48091DD038160809393
:103AE000DD0308958E3D21F48091DD038260F7CFE0
:103AF0008F3DB9F78091DD038460F1CF4091E00301
:103B00008D3C59F48091E10387FF0DC01092E103D1
:103B100041110BC01092DC0308C08E3C81F48091EF
:103B2000E10318169CF3442381F08091E203909105
:103B3000E303892B09F05AC01092DB0308958F3CF0
:103B400049F447FFF0CF1092E0038091E103811127
:103B5000ECCFE0CF803D19F41416ACF3E4CF909194
:103B6000E203893D29F41916F4F61092E203DBCF43
:103B70008A3D19F497FFD7CFF8CF9091E3038B3D9F
:103B800029F497FFD0CF1092E303CDCF8C3D19F4E9
:103B90001916CCF3C8CF9FE2980F983090F4815D4E
:103BA000990B21E030E0B90102C0660F771F8A95BA
:103BB000E2F7CB0180959091DF0389238093DF03A7
:103BC000B2CF8D3D31F48091DD038E7F8093DD0394
:103BD000AACF8E3D21F48091DD038D7FF7CF8F3DFD
:103BE00009F0A1CF8091DD038B7FF0CF08950E9473
:103BF0003A229C019091E0038091E103982B21F0FF
:103C00003093DA032093D9039091E2038091E30388
:103C1000982B21F03093D8032093D7038EED93E0B7
:103C20000E94A520089586E0EEEDF3E0DF011D92ED
:103C30008A95E9F71092DC031092DB031092DD0302
:103C40000895FC01828181110EC0838181110BC016
:103C50008481811108C091E08581811101C090E0CB
:103C6000892F8170089581E0FCCFA6E0B0E0EBE3FE
:103C7000FEE10C94392B86E0EEEDF3E0DE011196C7
:103C800001900D928A95E1F71092E0031092E10302
:103C90001092E2031092E3038B819C81892B89F0BF
:103CA0008091D9039091DA030E945222AC01909145
:103CB000DC039923C9F1809108028417150608F4E2
:103CC00040C08D819E81892B91F08091D703909186
:103CD000D8030E945222AC019091DB03992309F48E
:103CE0006AC0809104028417150608F472C0BE01F0
:103CF0006F5F7F4F8EED93E00E946821811105C0B8
:103D00008EED93E00E94211E81110E94F71D86E036
:103D1000FE013196AEEDB3E001900D928A95E1F788
:103D20002696E3E00C94552B209109028AE0289F07
:103D3000900111242417350720F69F5F9093DC0330
:103D400002C09F3FD1F71B81112359F00E949B1C99
:103D50009FEF11160CF491E0899F802D1124809320
:103D6000E0031C81112359F00E949B1C9FEF111648
:103D70000CF491E0899F802D11248093E1038091C0
:103D8000E003882309F49DCF1091E103112309F486
:103D900098CF0E948D1C882351F08093E003812FDF
:103DA0000E948D1C882329F08093E1038ACF81E053
:103DB000F4CF81E0F9CF209105028AE0289F90019D
:103DC00011242417350708F092CF9F5F9093DB03EF
:103DD00002C09F3FD1F71D81112359F00E94D91CC9
:103DE0009FEF11160CF491E0899F802D1124809390
:103DF000E2031E81112359F00E94D91C9FEF111676
:103E00000CF491E0899F802D11248093E30380912D
:103E1000E203882309F46BCF1091E303112309F423
:103E200066CF0E948D1C882351F08093E203812F7E
:103E30000E948D1C882329F08093E30358CF81E0F2
:103E4000F4CF81E0F9CFB0E0A0E0E9E2FFE10C942B
:103E5000332BE82FF0E0E055FD4FB490282F269546
:103E60002695269530E0F901E05BFC4F04918770C0
:103E700010E0082E02C0159507950A94E2F701702C
:103E80001127F901E05CFC4FE490F12C082E02C0F0
:103E9000F594E7940A94E2F791E0E922FF24F9010E
:103EA000E05DFC4FC491D0E002C0D595C7958A95DE
:103EB000E2F7C170DD27C62ED12C0115110549F599
:103EC000E114F10431F086EE0E94CE04C6010097A1
:103ED00071F5B6018B2D0E944A05C601009779F550
:103EE000E114F104A1F50115110531F081EE0E94F4
:103EF0001705C6010097C9F5CD2B31F08CE20E9461
:103F00006205C114D104C9F5CDB7DEB7E9E00C9460
:103F10004F2B81EE0E94CE04C601009789F2EFE993
:103F2000FFE03197F1F700C000000197F6CFEFE90D
:103F3000FFE03197F1F700C000000197C8CFEFE92B
:103F4000FFE03197F1F700C000000197C7CF86EE80
:103F50000E941705C601009731F2EFE9FFE03197A3
:103F6000F1F700C000000197F6CFEFE9FFE03197CD
:103F7000F1F700C000000197BDCF8FE99FE00197E6
:103F8000F1F700C0000091E0C91AD108BACF60E093
:103F90000E94231F0895982F9F709A50963020F00A
:103FA000805D0E94C71F0895895AFBCF0F931F930E
:103FB000CF93DF93C42FD22FFC0185818823C9F0D2
:103FC0004093E6030E943A229093E5038093E40332
:103FD00080E28C0F883040F4C77081E001C0880F08
:103FE000CA95EAF70E946B05DF91CF911F910F915F
:103FF00008951091E603141332C08091E403909168
:10400000E5030E945222883C910548F5C0E2CD0F9D
:104010001D17B9F080E2810F883040F4177081E0FD
:1040200001C0880F1A95EAF70E947205C83048F45B
:1040300081E09D2F977001C0880F9A95EAF70E9442
:104040006B05802F0E946205C83070F6D77081E042
:1040500001C0880FDA95EAF70E947205C5CF80E2A9
:104060008C0F883008F6C77081E001C0880FCA95B0
:10407000EAF7F2CF0F93DB0188519C478730910517
:10408000A0F5FC01EB5EF34D0C94242B06E221EE2F
:1040900041EE6AE17CE7CD010E94D61F80E00F91DE
:1040A000089507E225EE45EE6BE17CE7F4CF06E2EA
:1040B00021EE40EE68E17CE7EECF07E225EE44EE2C
:1040C00069E17CE7E8CF06E221EE42EE6CE17CE7B5
:1040D000E2CF07E225EE46EE6DE17CE7DCCF08E2B9
:1040E00021E045EE6EE17CE7D6CF15968C918823D2
:1040F00019F01092E603D3CF81E0D1CF9093ED0376
:104100008093EC0308950E944C13811103C08091A9
:10411000E7030895E091EC03F091ED03309729F067
:104120000190F081E02D0995089580E008950E94A6
:1041300083200895E091EC03F091ED03309721F096
:104140000280F381E02D09950895E091EC03F09150
:10415000ED03309739F022E0DC012C930680F781E3
:10416000E02D09950895A3E0B0E0E9EBF0E20C94AE
:104170003A2B2091EA033091EB0328173907A1F07D
:104180009093EB038093EA03E091EC03F091ED034D
:10419000309751F023E029839B838A830084F18543
:1041A000E02DCE01019609952396E2E00C94562B62
:1041B000A3E0B0E0EEEDF0E20C943A2B2091E8039E
:1041C0003091E90328173907A1F09093E903809310
:1041D000E803E091EC03F091ED03309751F024E017
:1041E00029839B838A830084F185E02DCE0101968B
:1041F00009952396E2E00C94562B4091D201509100
:10420000D3019A012E5F3F4F485F5F4F80E0241734
:10421000350709F40895F90191919F019923B9F3A4
:104220008F5FF5CF882371F02091D2013091D301B7
:10423000F9013296285F3F4F9191981729F0E217C4
:10424000F307D1F780E0089581E008959C01FC0117
:1042500032969FEF80E04191461751F09F3F19F44D
:10426000411101C0982F8F5F8630A9F79F3F09F455
:104270000895290F311D97FD3A95F901628308953C
:10428000FC01329608962191261303C0DF01119795
:104290001C92E817F907B9F70895682F8091D201A9
:1042A0009091D3010E9426210895682F8091D20118
:1042B0009091D3010E9440210895E091D201F091A4
:1042C000D301329686E0DF011D928A95E9F70895C1
:1042D000DC01FB0111969C9111978181981322C0FA
:1042E00012968C911297882319F0928189131AC023
:1042F00013968C911397882319F09381891312C018
:1043000015968C911597882319F0958189130AC009
:1043100014969C91992321F081E02481291303C0F4
:1043200080E001C081E08170089508950E94952188
:104330000895811106C081E08093EE030E949621CA
:10434000089582E0F9CF83E08093EE030E949621E6
:1043500008950E949921089581E08093EE030E94C0
:10436000962108950E94AC210895089508950E9411
:10437000B6210895089508950E94B5210895CF9318
:104380000E94BA210E94C6120E94BB21C0E08C2F5D
:104390000E94A711811105C0CF5FC830C1F7CF912E
:1043A000089581E0FCCF85B7806885BF85B78068B8
:1043B00085BF08951F921FB61F9211248F939F935C
:1043C000AF93BF938091EF03811113C080911504C7
:1043D00090911604A0911704B09118044196A11D64
:1043E000B11D8093150490931604A0931704B09305
:1043F0001804BF91AF919F918F911F901FBE1F9086
:10440000189580911D04843031F10E941A04109295
:10441000EF0388E190E020E40FB6F894A89580932C
:1044200060000FBE2093600083B7817F846083BFEC
:1044300083B7816083BF7894889583B78E7F83BF6D
:104440000FB6F894A8958091600088618093600011
:10445000109260000FBE08950E94D3070E941F04AF
:10446000089582E084BD93E095BD9AEF97BD809357
:104470006E0008952FB7F89480911504909116045A
:10448000A0911704B09118042FBF08952FB7F89486
:10449000609115047091160480911704909118048E
:1044A0002FBF08959C014FB7F89480911504909107
:1044B0001604A0911704B09118044FBF821B930BF0
:1044C0000895CF92DF92EF92FF922FB7F894C090A9
:1044D0001504D0901604E0901704F09018042FBF34
:1044E000A7019601261B370B480B590BCA01B901CE
:1044F000FF90EF90DF90CF90089578941F921FB6B1
:104500001F9211248F939F93AF93BF9380911504B3
:1045100090911604A0911704B09118040196A11D62
:10452000B11D8093150490931604A0931704B093C3
:104530001804BF91AF919F918F911F901FBE1F9044
:10454000189587E797E7909301088093000888E122
:104550009AE00FB6F894A895809360000FBE9093F0
:104560006000FFCF88E19AE00FB6F894A895809399
:1045700060000FBE90936000FFCF8EE14A9B02C0A7
:104580008150E1F74A9BFECF08955A9880E28A95C0
:10459000F1F75A9A0895FC013BE03A95F1F798E05B
:1045A00020E080E031E040E14A95F1F7880F4A9B36
:1045B00002C08160232742E04A95F1F7000040E104
:1045C0004A95F1F7915079F790E19A95F1F799B101
:1045D00032E03A95F1F7000040E14A95F1F792FB9D
:1045E000992790F992272081920F90830895A1E056
:1045F000B0E0EDEFF2E20C94362B19828C017C01D5
:10460000E60EF11C0E151F0541F481E09981911110
:1046100080E02196E6E00C94522B0E94BD22CE0150
:1046200001960E94CB22F80181938F01EBCF529A21
:104630005A9A089552985A9AEA9AE9E6F0E08081E7
:104640008F7C808308956150770B91E001C0990FB2
:104650006A95EAF720E031E0911108C0222391F039
:104660005A9A80E28A95F1F75A980895492F48237B
:1046700039F05A9A232740E24A95F1F79695ECCF04
:104680005A98F9CF5A98EDCFFF920F931F93CF937B
:10469000DF93EC018C01060F111DC017D10729F41F
:1046A000CDB7DEB7E5E00C94532BF9900E94C522FC
:1046B00068E08F2D0E942323F0CF1F920F920FB638
:1046C0000F9211240F931F932F933F934F935F9358
:1046D0006F937F938F939F93AF93BF93EF93FF93CA
:1046E000CF93DF930F92CDB7DEB719820E94BD2220
:1046F000CE0101960E94CB22082F069506950695BD
:10470000282F22952570902F9570290F922F937046
:1047100026952695920F982797708981982B09F0F6
:104720005CC0043008F059C080E18A95F1F75A9ACC
:10473000529A82E08A95F1F700C05A9888E0089F63
:1047400080011124D801A751BE4F1696ED91FC911E
:1047500017973097A9F060919B0270919C02149674
:104760002D913C911597260F371F11968D919C9195
:104770001297680F791F13964C9113978C91099596
:10478000F801E751FE4F6381662351F020919B02AF
:1047900030919C0284819581820F931F0E94442353
:1047A0000E94C52280E18A95F1F75A9852985A9A48
:1047B00080E18A95F1F7F801E751FE4F60816623A9
:1047C00051F020919B0230919C0281819281820F55
:1047D000931F0E94F7220E94BD220F90DF91CF917C
:1047E000FF91EF91BF91AF919F918F917F916F91C9
:1047F0005F914F913F912F911F910F910F900FBE9D
:104800000F901F9018950F931F93CF93DF93EC0198
:1048100004970CF04CC0F894529A5A9885E08A9507
:10482000F1F700009C2F969595708C2F8570980F4E
:10483000892F83709695969523E0CC0FDD1F2A95DE
:10484000E1F7980F8E01092B0E94C52200C068E095
:10485000802F0E94232380E18A95F1F752985A9A7B
:104860004A9B1EC087E090E04A991CC0FE01E751B8
:10487000FE4F63816623F9F020919B0230919C02E8
:1048800084819581820F931F0E94F722811113C0AA
:10489000529A5A9A7894DF91CF911F910F9108956F
:1048A00000C0DECF019729F4529A5A9A789480E09A
:1048B000F2CF00C0D9CF0E94BD2280E28A95F1F7E5
:1048C0005A98529A80E18A95F1F7C751DE4F688174
:1048D000662351F020919B0230919C0289819A813C
:1048E000820F931F0E9444230E94C522789481E086
:1048F000D2CF8091F803089508959B01BA01909159
:104900001D049430E9F48F708093E9009FEF80914B
:10491000E800915085FD06C085ED8A95F1F700000D
:104920009111F5CF8091E80085FF0AC050E040E08A
:10493000C9010E9477268091E8008E778093E80075
:10494000089543E050E0BC0182E00E947D24089578
:1049500046E050E0BC0182E00E947D240895CF93A0
:10496000DF93EC0148E050E0BC0181E00E947D242F
:1049700088E0FE01A0EFB3E001900D928A95E1F787
:10498000DF91CF91089580911C04811109C00E948C
:1049900007280E9464288091E20084608093E200EE
:1049A000089510921C0408950E94AC21089560910E
:1049B000190481E0611101C080E00E94A3210895E3
:1049C00090911D0481E0943009F080E06091190419
:1049D0000E94A921089542E061EC81E00E948327B2
:1049E00042E261EC82E00E94832790911D0481E005
:1049F000943009F080E0609119040E949921089593
:104A000080911F04833009F461C030F48130D1F10A
:104A1000823009F49EC008958A3009F48AC08B3030
:104A200009F46FC0893009F050C080911E048132B2
:104A300009F04BC08091220490912304029708F062
:104A400044C08091E800877F8093E8008091E8006F
:104A500082FF37C09091F3008091F200029731F409
:104A60008091F100813011F0863021F48091F100C5
:104A70008093F8038091E8008B778093E8000E9490
:104A8000B72723C080911E04813AF9F48091E80091
:104A9000877F8093E8008091220490912304892BE2
:104AA00061F468E080EF93E070E00E94C626809198
:104AB000E8008B778093E800089560E090E080E064
:104AC000F3CF80911D048111C1CF089580911E0400
:104AD000813AD9F78091220490912304892BA9F778
:104AE0008091E800877F8093E8008091E80080FF54
:104AF000FCCF809114028093F1008091E8008E77C2
:104B0000BCCF80911E04813201F7809122049091E4
:104B10002304892BD1F68091E800877F8093E800F9
:104B20000E94B72780912004809314020E94D3072B
:104B3000089580911E04813241F68091E800877FBC
:104B40008093E8000E94B727809121048093F903A5
:104B5000089580911E04813A09F0B7CF8091E80052
:104B6000877F8093E8008091E80080FFFCCF8091F0
:104B7000F903C1CF84B7877F84BF0FB6F894A89597
:104B800080916000886180936000109260000FBE89
:104B900080E890E00FB6F8948093610090936100F4
:104BA0000FBE0E94B22108950E9407280E94642827
:104BB000E2EEF0E080818460808378940E94E32AB2
:104BC00008958AE092E00E947E20089580911D045D
:104BD000853031F480911D04853019F00E942C221B
:104BE00008950E94012280911B04882399F30E945A
:104BF000BF21882379F30E9461260E94D307EACF60
:104C000008959A0140912404509125040E94092698
:104C10000895492F55274330510519F168F4413063
:104C2000510509F444C04230510509F445C090E0F3
:104C300080E050E040E025C04132510549F1423268
:104C40005105A9F784E490E042E554E0611571054F
:104C5000C1F08BE790E047ED53E06130710589F0DA
:104C6000E6CF99278130910581F0009729F00297CE
:104C7000F1F6E0E6F3E002C0E6E8F3E0849190E0CC
:104C8000AF01F901518340830895ECE7F3E0F6CFDB
:104C900089E090E04CE953E06115710591F389E0FA
:104CA00090E045EB53E06130710559F3C0CF82E1EC
:104CB00090E045EC53E0E5CF8BE390E04AE853E029
:104CC000E0CF80E189BD82E189BD09B400FEFDCF5E
:104CD0008091D8008F7D8093D8008091E000826021
:104CE0008093E0008091E00081FDFCCF0895AF92B9
:104CF000BF92CF92DF92FF920F931F93CF93DF93D8
:104D00006C01EB018A010E94D627F82E811123C085
:104D10000115110539F0F80180819181C81BD90B6B
:104D2000C80ED91EB12CA12C2097A9F08091E800C3
:104D300085FD22C08091E8008E778093E800011500
:104D40001105A1F0F80180819181A80EB91EB182F0
:104D5000A08285E0F82E8F2DDF91CF911F910F91CA
:104D6000FF90DF90CF90BF90AF9008950E94D6271C
:104D70008823D1F2F82EEFCFF60181916F01809355
:104D8000F1002197FFEFAF1ABF0ACECFFC0180914F
:104D900024049091250486179707A0F061157105EA
:104DA00029F49091E8009E779093E80090E06115D7
:104DB000710551F4911108C08091E80082FF34C060
:104DC00080E00895BC01F2CF80911D048823C1F1D9
:104DD0008530C1F18091E80083FD30C08091E8000A
:104DE00082FDEACF8091E80080FFE1CF8091F3005F
:104DF0002091F200382F6115710519F02830310526
:104E000058F091E02830310509F090E02091E80059
:104E10002E772093E800CBCF81918093F1006150F1
:104E200071092F5F3F4FE7CF80911D04882341F028
:104E3000853041F08091E80083FFBECF81E0089586
:104E400082E0089583E00895FC018091240490910C
:104E5000250486179707A0F06115710529F4809144
:104E6000E8008E778093E80090E06115710551F4B9
:104E7000911108C08091E80082FF35C080E008955C
:104E8000BC01F2CF80911D048823C9F18530C9F19E
:104E90008091E80083FD31C08091E80082FDEACF77
:104EA0008091E80080FFE1CF8091F3002091F20033
:104EB000382F6115710519F02830310558F091E04F
:104EC0002830310509F090E08091E8008E778093DA
:104ED000E800CBCF84918093F10031966150710945
:104EE0002F5F3F4FE6CF80911D04882341F085302E
:104EF00041F08091E80083FFBDCF81E0089582E01A
:104F0000089583E00895982F973028F08F7080934C
:104F1000E90081E008959093E900242F762F50E076
:104F2000981731F07091EC002091ED005091F00055
:104F300021FD02C09F5FE8CF3091EB003E7F3093B0
:104F4000EB003091ED003D7F3093ED003091EB00B0
:104F500031603093EB007093EC002093ED005093A0
:104F6000F0002091EE0027FDE5CF80E008958091CC
:104F70001E0487FF13C08091E80082FF06C0809165
:104F8000E8008B778093E80004C080911D048111B4
:104F9000F2CF089580911D048823D9F38091E80011
:104FA00080FFF8CF8091E8008E77ECCF2091E4006D
:104FB0003091E50095E6A9012091EC00822F8170E7
:104FC00020FF06C08091E80080FF06C080E00895C1
:104FD0002091E80022FD1AC080911D04882389F0E9
:104FE000853089F08091EB0085FD0FC02091E400B1
:104FF0003091E50042175307F9F29150E1F684E051
:10500000089582E0089583E0089581E008950E9464
:1050100076280E947E28E0EEF0E080818160808327
:10502000E8EDF0E080818F77808319BCA7EDB0E0D8
:105030008C918E7F8C9380818F7E808310921C0454
:1050400008950F931F93CF93DF930E9476280E94B9
:105050007E28C8EDD0E088818F778883888180683A
:10506000888388818F7D888319BC10921D041092DB
:10507000190410921B0410921A0400EE10E0F801BB
:1050800080818B7F808388818160888342E060E0BB
:1050900080E00E948327E1EEF0E080818E7F8083B4
:1050A000E2EEF0E08081816080838081886080838F
:1050B000F80180818E7F8083888180618883DF9181
:1050C000CF911F910F910895E8EDF0E080818F7EE0
:1050D0008083E7EDF0E080818160808384E082BF9F
:1050E00081E080931C040E9421280895E8EDF0E0FF
:1050F00080818E7F80831092E20008951092DA0002
:105100001092E10008951F920F920FB60F92112492
:105110002F933F934F935F936F937F938F939F93BF
:10512000AF93BF93EF93FF938091E10082FF0BC099
:105130008091E20082FF07C08091E1008B7F809325
:10514000E1000E94E22A8091DA0080FF19C080917C
:10515000D80080FF15C08091DA008E7F8093DA003E
:105160008091D90080FF96C080E189BD82E189BD30
:1051700009B400FEFDCF81E080931D040E94C3248A
:105180008091E10080FF19C08091E20080FF15C08E
:105190008091E2008E7F8093E2008091E200806146
:1051A0008093E2008091D80080628093D80019BC7F
:1051B00085E080931D040E94D7248091E10084FF44
:1051C0002BC08091E20084FF27C080E189BD82E18D
:1051D00089BD89B5982F917080FFFBCF8091D80051
:1051E0008F7D8093D8008091E1008F7E8093E100D5
:1051F0008091E2008F7E8093E2008091E2008160E6
:105200008093E20080911904882309F449C084E066
:1052100080931D040E94E0248091E10083FF29C057
:105220008091E20083FF25C08091E100877F809319
:10523000E10082E080931D04109219048091E10046
:105240008E7F8093E1008091E2008E7F8093E20068
:105250008091E20080618093E20042E060E080E0C3
:105260000E9483278091F00088608093F0000E9464
:10527000D424FF91EF91BF91AF919F918F917F9136
:105280006F915F914F913F912F910F900FBE0F90B3
:105290001F90189519BC10921D040E94D12470CF44
:1052A0008091E30087FD93E090931D04B3CF1F929C
:1052B0000F920FB60F9211242F933F934F935F934A
:1052C0006F937F938F939F93AF93BF93CF93DF930E
:1052D000EF93FF93D091E900DF708091EC00C82F2D
:1052E000C17080FDC0E81092E9008091F000877FD6
:1052F0008093F00078940E949B291092E90080919D
:10530000F00088608093F000CD2BCF70C093E9004F
:10531000FF91EF91DF91CF91BF91AF919F918F91CD
:105320007F916F915F914F913F912F910F900FBEA1
:105330000F901F901895AAE2B0E0E1EAF9E20C9410
:10534000392B8EE194E02091F100FC012193CF01F3
:10535000F4E086329F07B9F70E9400258091E800AB
:1053600083FF1EC180911E0490911F049A3008F0A3
:1053700017C1E92FF0E0E45EF34D0C94242B803844
:1053800099F0823809F00CC1809122048F70873027
:1053900008F006C18093E9008091EB0085FB882727
:1053A00080F91092E90006C080911A0490911B04C4
:1053B000911182609091E800977F9093E80080932C
:1053C000F1001092F1008091E8008E77E5C088230B
:1053D00009F4D3C0823009F0E3C080912004811128
:1053E000D6C0809122048F702FEF280F263008F04E
:1053F000D7C08093E9002091EB0020FFC8C0933014
:1054000031F48091EB0080628093EB00C0C09091FA
:10541000EB0090619093EB0021E030E001C0220F9F
:105420008A95EAF72093EA001092EA008091EB0057
:105430008860EACF8111B4C0109120041F77809159
:10544000E3008078812B8093E3008091E800877FE0
:105450008093E8000E94B7278091E80080FFFCCF8E
:105460008091E30080688093E30082E0111183E083
:1054700080931D0495C08058823008F091C08091BF
:105480002004909121048C3D23E09207A1F583E054
:105490008A838AE289834FB7F894DE01139620E06D
:1054A0003EE051E2E32FF0E050935700E49120FFFB
:1054B00003C0E295EF703F5FEF708E2F90E0EA300F
:1054C000C0F0C7968D939D932F5F243159F74FBF3E
:1054D0008091E800877F8093E8006AE270E0CE0167
:1054E00001960E94C6268091E8008B778093E800A1
:1054F00057C0C096E7CF6091220470912304AE019B
:105500004F5F5F4F0E940126BC01892B09F448C000
:105510009091E800977F9093E80089819A810E949A
:105520002427E1CF8038E1F58091E800877F8093E0
:10553000E800809119048093F10045CF811130C0BB
:1055400090912004923060F58091E800877F8093ED
:10555000E800909319040E94B727809119048823CA
:1055600011F084E005C08091E30087FDFACF81E06F
:1055700080931D040E94EB2413C08091200481308D
:1055800079F481E0933009F080E080931B0410925D
:10559000E9008091E800877F8093E8000E94B727A8
:1055A0008091E80083FF0AC08091E800877F8093A4
:1055B000E8008091EB0080628093EB00AA96E3E024
:1055C0000C94552B0895CF9380911D048823A1F04E
:1055D000C091E900CF709091EC00892F817090FD0F
:1055E00080E8C82B1092E9008091E80083FD0E94BA
:1055F0009B29CF70C093E900CF9108950E9407289E
:1056000010921D040895E8EDF0E0808180618083B0
:105610008AE18A95F1F700C08091D90081700895E0
:1056200097FB072E16F4009407D077FD09D00E944F
:10563000612B07FC05D03EF4909581959F4F08950E
:10564000709561957F4F0895EE0FFF1F0590F491BF
:10565000E02D09942F923F924F925F926F927F922A
:105660008F929F92AF92BF92CF92DF92EF92FF9272
:105670000F931F93CF93DF93CDB7DEB7CA1BDB0B1E
:105680000FB6F894DEBF0FBECDBF09942A883988C3
:1056900048885F846E847D848C849B84AA84B984CA
:1056A000C884DF80EE80FD800C811B81AA81B981D6
:1056B000CE0FD11D0FB6F894DEBF0FBECDBFED01EA
:1056C0000895AA1BBB1B51E107C0AA1FBB1FA61749
:1056D000B70710F0A61BB70B881F991F5A95A9F79B
:1056E00080959095BC01CD010895FB01DC0104C0BB
:1056F0008D910190801921F441505040C8F7881BCA
:10570000990B0895FB01DC0102C001900D924150FC
:105710005040D8F70895F999FECF92BD81BDF89A0F
:10572000992780B50895A8E1B0E042E050E00C94DC
:10573000CF2BDC01A40FB51F4150504048F0CB01E6
:10574000840F951F2E910E94AA2B41505040D0F7F4
:105750000895262FF999FECF92BD81BDF89A019741
:1057600000B4021639F01FBA20BD0FB6F894FA9AA9
:10577000F99A0FBE08950396272F0E94AA2B0E9424
:10578000A92B252F0E94AA2B242F0C94AA2B01961B
:10579000272F0E94AA2B0C94A92BDC01CB01FC0122
:1057A000F999FECF06C0F2BDE1BDF89A319600B47A
:1057B0000D9241505040B8F70895F894FFCFBA05C4
:1057C000BA050A060A066F068B06E905E905900682
:1057D0000107100710077F158C1591159515971562
:1057E00099159B159D15091C7D1C111CDB1BDF1BCE
:1057F000151CE31B191C251CEF1B761CF31B291C15
:10580000F71B2D1C551CFB1B311C5C1C011C371C81
:105810003F1CE71B1D1CEB1B211C051C3B1C4B1CD0
:10582000651C741CD51B0D1C841C57205D20462054
:105830005120632069206F20BF29E729D02AE7295A
:0C584000D02A1A2A3B2AD02A922A9E2A3B
:10584C006A01167C0000006201D1000000005C01BE
:10585C00D2000000005201D3000000004C013900BE
:10586C000000004601501300000040014F130000DF
:10587C00003A01790000000034017A000000002E8B
:10588C00011D0000000028014C0000000020012E2A
:10589C00000000001A012402000000140131020073
:1058AC0000000E011E0200000008011F0200000093
:1058BC0002013402000000FC003400000000F20081
:1058CC00D900000000E800DA00000000E200737C60
:1058DC00000000DC000401000000D6007B0000008A
:1058EC0000D0007C00000000CA007D00000000C455
:1058FC00002D02000000BE002002000000B80021B4
:10590C0002000000B2002202000000AC007E000089
:10591C0000001C03C6F7F6F5F43133323693919040
:10592C009466973435FFFFFF010000000100000072
:10593C00000000000401000000040500000000004D
:10594C0000016408320A280A100A7924AF247C2446
:10595C00A824A12401F4F5F6F7C693363233319717
:10596C00669490913534FFFFFFE200E900EA00B540
:10597C0000B600B700CD008301CC008A01920194DF
:10598C00012102230224022502260227022A02B345
:10599C0000B4006F0070009F01CB019F02A0028138
:1059AC008283E200E900EA00B500B600B700CD0042
:1059BC008301CC008A01920194012102230224026A
:1059CC002502260227022A02B300B4006F007000E1
:0E59DC009F01CB019F02A00281828342030043
:00000001FF
